:020000040800F2
:100000000080002061090008B1090008B10900085A
:1000100000000000000000000000000000000000E0
:10002000000000000000000000000000B10900080E
:100030000000000000000000B1090008ED08000801
:10004000B1090008B1090008B1090008B1090008A8
:10005000B1090008B1090008B1090008B109000898
:10006000B1090008B1090008B1090008B109000888
:10007000B1090008B1090008B1090008B109000878
:10008000B1090008B1090008B1090008B109000868
:10009000B1090008B1090008B1090008B109000858
:1000A000B1090008B1090008B1090008B109000848
:0C00B000F1080008B1090008B1090008BF
:1000BC0010B5064C2378002B07D1054B002B02D032
:1000CC00044800E000BF0123237010BD0400002091
:1000DC0000000000FC090008044B10B5002B03D0F5
:1000EC000349044800E000BF10BDC04600000000FA
:1000FC0008000020FC090008002243088B4274D33E
:10010C0003098B425FD3030A8B4244D3030B8B420C
:10011C0028D3030C8B420DD3FF22090212BA030C15
:10012C008B4202D31212090265D0030B8B4219D3F6
:10013C0000E0090AC30B8B4201D3CB03C01A524116
:10014C00830B8B4201D38B03C01A5241430B8B425E
:10015C0001D34B03C01A5241030B8B4201D30B0347
:10016C00C01A5241C30A8B4201D3CB02C01A52416E
:10017C00830A8B4201D38B02C01A5241430A8B4231
:10018C0001D34B02C01A5241030A8B4201D30B021A
:10019C00C01A5241CDD2C3098B4201D3CB01C01A34
:1001AC00524183098B4201D38B01C01A524143093E
:1001BC008B4201D34B01C01A524103098B4201D32C
:1001CC000B01C01A5241C3088B4201D3CB00C01A99
:1001DC00524183088B4201D38B00C01A5241430811
:1001EC008B4201D34B00C01A5241411A00D2014636
:1001FC00524110467047FFE701B5002000F006F8A9
:10020C0002BDC0460029F7D076E770477047C0465C
:10021C0010B502790368002A3CD00122002B1FD0B4
:10022C00417991421ED0002903D0022922D000220C
:10023C0006E01E494C689C434C600C681C430C60E7
:10024C00817900290CD0022918D003291ED001294C
:10025C002AD11649C8689843C860886803438B60E4
:10026C00100010BD11490C689C430C604C681C4379
:10027C004C60E5E70D490C681C43F6E70B498868B0
:10028C0098438860C8680343CB60E9E707498868EE
:10029C001843F6E7DB43054A1168194011605168B1
:1002AC000B4053600122DBE70022D9E70004014038
:1002BC00F0B500260F6885B03B00F3400CD14B68BD
:1002CC00013B012B05D8CA6843687A43BB431343EF
:1002DC004360012005B0F0BD0123B3403B4036D054
:1002EC004A68032501921A005A435543ED430468AA
:1002FC0002952C40019D55432C430460019C013C0C
:10030C00012C0AD88468A44665468C68544303942F
:10031C00029C2540039C2C438460C468A44665461B
:10032C000C6954430394029C2C402500039C2543E8
:10033C00019CC560022C0AD14C69FF2B09D80F25F2
:10034C00524355436243036AAB4313430362013682
:10035C00B2E70F221B0A5B435B435A436343456A74
:10036C0095431D434562F2E7034B044A5B681B0649
:10037C001B0FD35CD840704700100240240A0008C1
:10038C00034B044A5B685B055B0FD35CD84070473A
:10039C0000100240340A0008C0210B4B49025A6875
:1003AC0070B50A408A420CD108480F25D96A5C689E
:1003BC0029400131FFF7A0FEA40C2C40023460430D
:1003CC0070BD0348F1E7C04600100240006CDC022F
:1003DC0000127A000C22074B10B55B681340082BF7
:1003EC0003D0934204D1044810BDFFF7D5FFFBE7BF
:1003FC000248F9E700100240006CDC0200127A009F
:10040C0010B50400FFF7E6FF2060FFF7ADFF60605A
:10041C00FFF7B6FFA06010BD10B5031E20D103205E
:10042C002E490A6B0240022A0DD0824205D0012AC5
:10043C000FD1FFF7CFFF030003E00A68920700D546
:10044C00274B180021E0096A1142FAD080231B02C5
:10045C00F7E7FFF7BFFFFFF787FFFFF791FFEAE72B
:10046C00102819D1C0211D4A8902136B1940802311
:10047C005B050B431B498B4223D01B498B4205D098
:10048C001A4A934222D1FFF7A5FF10BD0020136832
:10049C009B07FAD51248F8E70020122BF5D1C021A2
:1004AC000E4A0903136B194090235B050B4310494B
:1004BC008B4206D00F498B4201D00F4AE1E71368FB
:1004CC00E6E7106A8007C00FC003DEE7FFF782FF84
:1004DC00FFF74AFFFFF754FFD7E7C0460010024072
:1004EC0000127A000000021000000310000001103E
:1004FC000000081200000C120000041230B5036852
:10050C000400012085B00D00184002D0002005B079
:10051C0030BD4B68C96822680B4329690B43A96934
:10052C000B4327490A40134323606368254A134051
:10053C00AA6813436360A368234A13406A69134390
:10054C00A360224B9C4218D1FFF766FF0028DDD038
:10055C0029680029DAD08022AD6912024B08954235
:10056C0029D14000C018FFF7C7FD194B0340000705
:10057C00400F1843E0600120C9E7164B10209C4245
:10058C00E2D0154B9C4201D11220DDE7134B9C426B
:10059C0004D101A8FFF734FF0398D7E7104B9C4216
:1005AC00F7D0104B9C42F4D00F4B9C42F1D00F4B28
:1005BC009C42ABD1EDE71818FFF79EFD80B2D9E74E
:1005CC00F369FFEFFFCFFFFFFFFCFFFF0038014097
:1005DC00F0FF00000044004000480040004C004088
:1005EC00005000400014014000180140001C014064
:1005FC00FA2110B58900FFF77FFD0022034B01386B
:10060C0058609A6005321A6010BDC04610E000E0D8
:10061C00014B18607047C04600000020054B82B0AB
:10062C005A6902435A615B6918400190019B02B000
:10063C007047C04600100240828C014B1A70704704
:10064C0020000020802110B5054A0378002B00D132
:10065C0010BDD4690C42FCD09BB213850130F4E779
:10066C000044004001232D4910B50A689A431A43EF
:10067C000A600A681A4200D1FEE7294C226813432B
:10068C002360022322681A42FCD0F8222368934389
:10069C001A008023134323606368224A1A40A22362
:1006AC009B0313430F226360E36A93431A000123F5
:1006BC001343E362802322685B041343236080238B
:1006CC009B0422681A42FCD0F02263689343636057
:1006DC006368154A134003226360636893431A00EE
:1006EC00022313430C22636063681340082BFBD175
:1006FC000E48FFF77DFF04230D4A0C4811680B438D
:10070C001360FFF785FF236B0A4A13400A4A2363E1
:10071C00136A1B021B0A136210BDC0460020024064
:10072C0000100240FF7FC2FFFFF8FFFF006CDC02ED
:10073C0010E000E0FFFFFCFF00ED00E0F0B501274A
:10074C0080225B4E91B0B36952053B43B361B369F0
:10075C0058493B400193019BF36900251343F36116
:10076C00F36903AC13400093009B534BDA691202FC
:10077C00120ADA611A6A0A401A621A6A1202120A18
:10078C001A62FFF76FFF80200003FFF747FF8020FE
:10079C00C003FFF743FF80208002FFF73FFF902349
:1007AC002022F021DB059A62444A454853698B4369
:1007BC00D0390B435361434BD9680140D9601A6857
:1007CC0002401A6080239B01039302232000A37133
:1007DC0027716571FFF71CFD9020202309A9C00526
:1007EC0009930A970B950C950D95FFF761FD8022E7
:1007FC00F36992021343F361F3699020134002935F
:10080C00029B042321000393C005023B6360A56097
:10081C00E56025616761FFF74BFD082390202100FF
:10082C000393C005063B6360A560E56025616761C5
:10083C00FFF73EFDC721FF20234B89005A58234C5C
:10084C0082435A50802252051A60E1235B020993BD
:10085C000C230D93802309A91B0220000F930A95EA
:10086C000B950C950E95FFF749FEA368184A13409B
:10087C00A3608023A2685B011343A3606368154ADD
:10088C0013402A226360A3689343A36023680A3A47
:10089C003B4323602368134323600F4C2378612B65
:1008AC00FDD10E48FFF7CEFE00232370F5E7C046BE
:1008BC0000100240FFFF00FF00ED00E000000140CF
:1008CC00FFFFFFF30008004800E100E00044004097
:1008DC00FFFBFFFFFFB7FFFF20000020140A0008FA
:1008EC007047000010B50248FFF7A6FE10BDC046C9
:1008FC00004400400121114B11481A680A431A6048
:10090C005A6802405A601A680E4802401A601A6807
:10091C000D4802401A605A680C4802400F205A6079
:10092C00DA6A8243DA621A6B094802401A635A6B1C
:10093C008A435A6300229A607047C04600100240F6
:10094C000CB8FF08FFFFF6FEFFFFFBFFFFFFC0FF29
:10095C00ACFEF0FF0D4885460D480E490E4A0023AB
:10096C0002E0D458C4500433C4188C42F9D30B4A57
:10097C000B4C002301E013600432A242FBD3FFF7BF
:10098C00B9FF00F011F8FFF7D9FEFEE70080002058
:10099C000000002004000020440A0008040000208D
:1009AC0024000020FEE7000070B500260C4D0D4C15
:1009BC00641BA410A64209D1002600F019F80A4DB8
:1009CC000A4C641BA410A64205D170BDB300EB58B1
:1009DC0098470136EEE7B300EB5898470136F2E73B
:1009EC003C0A00083C0A00083C0A0008400A0008BF
:1009FC00F8B5C046F8BC08BC9E467047F8B5C04672
:080A0C00F8BC08BC9E467047CF
:100A140048656C6C6F20576F726C6421200D0A005E
:100A2400000000000000000001020304060708099A
:080A34000000000001020304B0
:040A3C00E5000008C9
:040A4000BD000008ED
:040A440000127A0022
:040000050800096185
:00000001FF
