:020000040800F2
:100000000080002065130008B5130008B513000830
:1000100000000000000000000000000000000000E0
:10002000000000000000000000000000B513000800
:100030000000000000000000B5130008ED120008E9
:10004000B5130008B5130008B5130008B513000870
:10005000B5130008B5130008B5130008F91200081D
:10006000B5130008B5130008B5130008B513000850
:10007000B5130008B5130008B5130008B513000840
:10008000B5130008B5130008B5130008B513000830
:10009000B5130008B5130008B5130008B513000820
:1000A000B5130008B5130008B5130008B513000810
:0C00B000B5130008B5130008B5130008D4
:1000BC0010B5064C2378002B07D1054B002B02D032
:1000CC00044800E000BF0123237010BD0400002091
:1000DC000000000014140008044B10B5002B03D0D2
:1000EC000349044800E000BF10BDC04600000000FA
:1000FC00080000201414000802B471464908490095
:10010C00095649008E4402BC7047C04602B4714681
:10011C0049084900095C49008E4402BC7047C0463E
:10012C00002243088B4274D303098B425FD3030A2A
:10013C008B4244D3030B8B4228D3030C8B420DD33D
:10014C00FF22090212BA030C8B4202D312120902CB
:10015C0065D0030B8B4219D300E0090AC30B8B4209
:10016C0001D3CB03C01A5241830B8B4201D38B03B7
:10017C00C01A5241430B8B4201D34B03C01A52415C
:10018C00030B8B4201D30B03C01A5241C30A8B429F
:10019C0001D3CB02C01A5241830A8B4201D38B028A
:1001AC00C01A5241430A8B4201D34B02C01A52412E
:1001BC00030A8B4201D30B02C01A5241CDD2C309A0
:1001CC008B4201D3CB01C01A524183098B4201D31C
:1001DC008B01C01A524143098B4201D34B01C01A07
:1001EC00524103098B4201D30B01C01A5241C3087F
:1001FC008B4201D3CB00C01A524183088B4201D3EE
:10020C008B00C01A524143088B4201D34B00C01AD9
:10021C005241411A00D20146524110467047FFE745
:10022C0001B5002000F006F802BDC0460029F7D049
:10023C0076E770477047C04610B5040000F0A2FC8A
:10024C00FA218900FFF76CFF00F070F80120002202
:10025C002100404200F030F8002010BD1023064A67
:10026C0010B5116800200B431360FFF7E5FF00F099
:10027C00EBFF002010BDC04600200240024A13686C
:10028C00013313607047C04620000020014B1868F2
:10029C007047C0462000002037B50190FFF7F6FFED
:1002AC00019C0500631C5A1E9341E418FFF7EEFFF6
:1002BC00401BA042FAD337BD70B58901002814DA6F
:1002CC000F23C0B20340083B114A9B089B009B18AC
:1002DC00032210409040FC321500114085408140B3
:1002EC00DC69AC432143D96170BD032583082840E8
:1002FC00A840FC352E00074A9B009B18C022864064
:10030C002940814092009C58B44321439950EBE71B
:10031C0000ED00E000E100E01F2318401E3B83408D
:10032C00014A13607047C04600E100E0094A431ED1
:10033C00012093420DD8C021074A08485360036A34
:10034C0009061B021B0A0B43036200200723906063
:10035C0013607047FFFFFF0010E000E000ED00E0CD
:10036C00054B1A68042802D1104318607047042109
:10037C008A431A60FAE7C04610E000E0704710B5F7
:10038C00FFF7FCFF10BD0000F0B5564A0B68821851
:10039C00541EA24189B00393002304320592039AA0
:1003AC00DA4001D109B0F0BD01229A40944664466E
:1003BC00039A2240029200D192E04A6801921022E4
:1003CC00019E9643022E0DD107240F271C40A4003A
:1003DC00A740DA0892008218156ABD430F69A7403E
:1003EC003D431562032214005D00AC40E4430768F2
:1003FC00013E27400497019F3A40AA40049F3A438C
:10040C000260012E0ED8CA688668AA402640324384
:10041C008260624646689643019AD206D20F9A4091
:10042C0032434260C26814408A68AA401443019A5D
:10043C00C460D20054D501262B4A1D009469344364
:10044C00946192699C0832400792079A274AA4004B
:10045C00A418A268944603221540AD000C32AA40A1
:10046C00674697439022D2059446002260450DD0F2
:10047C001F4A94463200604508D01E4E9218B04276
:10048C0004D01D4E0132B04200D0059AAA403A4326
:10049C00A2601A4A029C1668029D019FE4433543F0
:1004AC00FF0301D43500254015605668029D019F5D
:1004BC003543BF0301D43500254055609668029D35
:1004CC00019F3543FF0201D4350025409560D56866
:1004DC00029E019F2E43BF0201D425402E00D66000
:1004EC0001335CE700F0FFB7001002400000014050
:1004FC000004004800080048000C004800040140BB
:10050C00002A01D0816170478162FCE74369594040
:10051C0041617047044B10B55A69104202D05861C2
:10052C0000F0DCFD10BDC046000401400420064A6A
:10053C00136983431361012901D130BF704740BF58
:10054C0020BF20BFFAE7C04600ED00E0F0B503681D
:10055C0085B00500DB0733D42B689B0700D58AE0F8
:10056C002B681B0700D5CAE02B685B0700D5EDE0B4
:10057C002B68DB061AD56A69BC4C0423012A00D00F
:10058C0059E1616B02260B436363636B1A4362632D
:10059C00FFF77CFE0700636B334200D144E1F82186
:1005AC00626BAB698A43DB00134363632B689B0666
:1005BC0000D567E1696A002900D0A4E1002018E0A9
:1005CC000C21AA4C62680A40042A0BD063680B40C9
:1005DC00082B10D1C02263685202134080225202B1
:1005EC00934208D123689B03B6D56B68002BB3D11B
:1005FC00012005B0F0BD6B68012B13D1802322685C
:10060C005B0213432360FFF741FE80260700B6020E
:10061C0023683342A0D1FFF739FEC01B6428F7D9F9
:10062C000320E6E7002B16D12368914A802613405D
:10063C00236023688F4AB60213402360FFF726FE1F
:10064C0007002368334200D186E7FFF71FFEC01B6B
:10065C006428F6D9E4E7052B05D180232268DB0258
:10066C0013432360CAE72368814A1340236023683D
:10067C00804A1340C6E70C227C4C636813420BD0B3
:10068C0063681340082B15D1C022636852021340D3
:10069C008022120293420DD123689B0702D5EB688E
:1006AC00012BA5D1F82122682B698A43DB00134367
:1006BC00236055E7EA680123002A0FD0226802263E
:1006CC0013432360FFF7E2FD070023683342E9D1AF
:1006DC00FFF7DCFDC01B0228F7D9A1E72268022630
:1006EC009A432260FFF7D2FD07002368334200D102
:1006FC0036E7FFF7CBFDC01B0228F6D990E7EA6975
:10070C0001235A4C002A10D0626A022613436362FA
:10071C00FFF7BCFD0700636A334200D024E7FFF704
:10072C00B5FDC01B0228F6D97AE7626A02269A4305
:10073C006262FFF7ABFD0700636A334200D113E737
:10074C00FFF7A4FDC01B0228F6D969E7802200211F
:10075C00464C5205E3690091134208D1E3691343F7
:10076C00E361E36913400393039B01230093802708
:10077C00414E7F0033683B4206D0AB68012B13D14E
:10078C00226A1343236230E033683B433360FFF744
:10079C007DFD019033683B42EFD1FFF777FD019B64
:1007AC00C01A6428F6D93BE70122002B14D1236A26
:1007BC00022793432362236A033293432362FFF796
:1007CC0065FD0600236A3B4225D0FFF75FFD2B4BEE
:1007DC00801B9842F6D923E7052B0BD1216A013BEC
:1007EC000B432362236A1A432262FFF74FFD022751
:1007FC0006000DE0236A934304222362236A934389
:10080C00C0E7FFF743FD1D4B801B984200D907E75B
:10081C00236A3B42F5D0009B012B00D0A8E6E3698C
:10082C00174A1340E361A3E6FFF730FDC01B022813
:10083C0000D8B0E6F4E6053203D1626B9A436263EA
:10084C00ADE6626B0226134301226363636B934331
:10085C006363FFF71BFD0700636B334200D1A5E612
:10086C00FFF714FDC01B0228F6D9D9E60010024090
:10087C00FFFFFEFFFFFFFBFF00700040881300002E
:10088C00FFFFFFEF0C21464C62680A408A4209D0F8
:10089C0063680B40082B0ED1C022636852021340D0
:1008AC00934208D1636BDB0300D483E62B6A012BE4
:1008BC0000D09DE67EE62B6A002B11D08026636B60
:1008CC00760233436363FFF7E1FC0700636B33424B
:1008DC0000D06FE6FFF7DAFCC01B0228F6D99FE6C2
:1008EC00636B304A802613406363FFF7CFFC07002D
:1008FC007602636B334200D15CE6FFF7C7FCC01B8A
:10090C000228F6D98CE60C22254C63681340082B80
:10091C0000D16DE62368244A1340236002292FD1AD
:10092C00FFF7B4FC80260700B6042368334221D1BC
:10093C000F22E36A93432A6B1343E362A96AEB6ABF
:10094C0062680B43194980250A4013436360802376
:10095C0022685B0413432360FFF798FC0600AD0488
:10096C0023682B4200D029E6FFF790FC801B02285D
:10097C00F6D955E6FFF78AFCC01B0228D5D94FE6FD
:10098C00FFF784FC80250600AD0423682B4200D1C0
:10099C0014E6FFF77BFC801B0228F6D940E6C04624
:1009AC0000100240FFFFFEFFFFFFFFFEFF7FC2FFB4
:1009BC0070B5194C88B010222100684600F01AFD61
:1009CC00210004AD10221031280000F013FD0C2280
:1009DC00124E73681A40082A04D00C2A1AD11048F7
:1009EC0008B070BD0F206A46990C0140545CF26A45
:1009FC000240A95CC0228020520213404002834274
:100A0C0001D1084802E09342FBD10548FFF788FB6F
:100A1C006043E5E70348E3E72C14000800100240AC
:100A2C00006CDC0200127A00F7B501224F4C060074
:100A3C002368019113408B421FD33268930728D44B
:100A4C00D3072ED40123226801991A40914200D277
:100A5C007EE03368464C5B0700D580E0FFF7A8FFCB
:100A6C006368444A1B061B0FD35CD840424B18608A
:100A7C000020FFF7E1FB00200AE023680199934373
:100A8C000B43236023681340019A9A42D5D001206E
:100A9C00FEBDF02036494B688343B06803434B607E
:100AAC00CEE77268324D012A1AD12B689B03EED522
:100ABC0003216B688B4313436B60FFF7E7FB736891
:100ACC000700012B1CD10C226B681340042BB9D0EE
:100ADC00FFF7DCFB294BC01B9842F4D90320D7E766
:100AEC00022A03D12B689B01E2D4D0E7032A03D15D
:100AFC006B6BDB03DCD4CAE72B689B07D8D4C6E747
:100B0C00022B0BD10C226B681340082B9AD0FFF7E9
:100B1C00BDFB1A4BC01B9842F4D9DFE7032B11D055
:100B2C000C226B68134200D18CE7FFF7AFFB134B21
:100B3C00C01B9842F4D9D1E7FFF7A8FB0F4BC01BA1
:100B4C009842CBD80C226B6813409342F4D179E7CE
:100B5C0022689A43226022681A4298D179E7636826
:100B6C00074A1340F2681343636077E700200240A2
:100B7C0000100240501400080000002088130000F0
:100B8C00FFF8FFFF014B18687047C04600000020BB
:100B9C00044B054A5B685B055B0FD35C034A10682A
:100BAC00D84070470010024060140008000000207C
:100BBC00F0B5036885B00500DB0328D58022002141
:100BCC00444C5205E3690091134208D1E369134385
:100BDC00E361E36913400393039B01230093802794
:100BEC003D4E7F0033683B4241D0C022236A9200C5
:100BFC0013403A4E4DD1236A1E406B681E43009B36
:100C0C002662012B03D1E369354A1340E3612B685B
:100C1C00DA0706D503202F490A6B8243A8680243E2
:100C2C000A639A0706D52B492E480A6B0240E868DE
:100C3C0002430A635A0306D526492B480A6B024025
:100C4C00286902430A639A0606D5102021490A6BCB
:100C5C008243686902430A6300205B0517D5402173
:100C6C001C4A136B8B43A9690B4313630FE0336866
:100C7C003B433360FFF70AFB019033683B42B4D12E
:100C8C00FFF704FB019BC01A6428F6D9032005B0BA
:100C9C00F0BD69680A409342ADD08023226A206A75
:100CAC0011005B0203432362236A10483140034066
:100CBC0023622162D3079ED5FFF7E8FA07000222D0
:100CCC00236A134297D1FFF7E1FA094BC01B9842F4
:100CDC00F5D9DBE70010024000700040FFFCFFFF7D
:100CEC00FFFFFFEFFFFFFCFFFFFFF3FFFFFFFEFF28
:100CFC008813000070B504000568C3698268006938
:100D0C0029680243606902435C481A4301400A4364
:100D1C002A606A685A49206A0A40E1680A436A6094
:100D2C00A269A9680243574801400A43AA60564A7F
:100D3C00954212D10321554A126B0A405449885CE2
:100D4C008022120293425CD008281AD8FFF7DEF9F1
:100D5C00781926197D19191980004E4A954227D108
:100D6C00C0218020494A8902126B40020A4082420B
:100D7C0000D172E007D8002A39D0802212029342A7
:100D8C005BD0012058E080208002824200D16BE0D1
:100D9C008A42F2D18022120293423BD061683E4BD0
:100DAC004808C018FFF7BCF980B2E860002043E0A7
:100DBC003A4A95420CD1C0218020344A0903126B67
:100DCC00C0020A40824248D0D5D980200003DCE71B
:100DDC00334A95420BD0334A954208D0324A954259
:100DEC0005D0324A954202D0314A9542C5D1802273
:100DFC001202934224D1FFF7CBFE636840005B08DC
:100E0C000BE0082819D8FFF777F9F61805182C18F5
:100E1C001818330063685808264BC0186168FFF730
:100E2C007FF983B200200F22190091430A001B079F
:100E3C0021685B0F1343CB6070BD01200023F2E7E8
:100E4C00FFF7A6FE61684B08ABE7FFF7B1FDF9E7CA
:100E5C00802361681B024808A3E780221202934298
:100E6C00F3D1FFF7A5FDC8E7802212029342EFD120
:100E7C006368580880235B02CFE7C046F369FFEF35
:100E8C00FFCFFFFFFFF4FFFF0038014000100240CE
:100E9C004C1400080044004000127A000048004046
:100EAC00004C00400050004000140140001801406C
:100EBC00001C01400024F400436A30B5DA0706D563
:100ECC000168284C4A682240846A22434A609A0787
:100EDC0006D50168244C4A682240C46A22434A6001
:100EEC005A0706D50168214C4A682240046B2243FC
:100EFC004A601A0706D501681D4C4A682240446BAB
:100F0C0022434A60DA0606D501681A4C8A682240E8
:100F1C00846B22438A609A0606D50168164C8A684F
:100F2C002240C46B22438A605A0610D50168134DC7
:100F3C004A68046C2A4022434A608022520394423D
:100F4C0005D14A680E4C2240446C22434A601B0671
:100F5C0006D502680B4953680B40816C0B435360F8
:100F6C0030BDC046FFFFFDFFFFFFFEFFFFFFFBFF95
:100F7C00FF7FFFFFFFEFFFFFFFDFFFFFFFFFEFFF35
:100F8C00FFFF9FFFFFFFF7FFF8B504000E001500F1
:100F9C001F002268D36933409B1B59424B41AB4223
:100FAC0001D0002018E0069B0133F3D0069B002BE8
:100FBC0013D123680C491A6803200A401A609A68F6
:100FCC00A331FF318A439A602200202369321370C7
:100FDC005370002368342370F8BDFFF757F9069B54
:100FEC00C01B8342D5D2E4E75FFEFFFF002337B579
:100FFC000400C366FFF74AF92368194A05009342B7
:10100C000ED0184A93420BD0174A934208D02200B4
:10101C0020230020693268341370537020703EBD59
:10102C001B681B070FD423681B685B07EFD5802157
:10103C000E4B00220093C9032B002000FFF7A4FFE6
:10104C0000280BD1E3E78021084B00220093890391
:10105C002B002000FFF798FF0028E4D00320DEE7E8
:10106C00003801400044004000480040FFFFFF01F1
:10107C0070B5041E01D1012070BD050069352B78B7
:10108C00DBB2002B04D102006832137000F004F9BB
:10109C002423012122682B70136820008B431360DA
:1010AC00FFF728FE0128E6D0636A002B02D020004F
:1010BC00FFF702FF236808495A6820000A402A21DA
:1010CC005A609A688A439A60012219680A431A6026
:1010DC00FFF78CFFD0E7C046FFB7FFFF802310B5AA
:1010EC009B01984204D190202021C005FFF70EFAF5
:1010FC0010BD102330B599B00F9380231B021593AC
:10110C00A023022401259B030BA80B940E95149489
:10111C0016931795FFF71AFA002800D0FEE707235D
:10112C00029003902900684600930194FFF77CFC21
:10113C00002800D0FEE7079004A80494FFF738FDC0
:10114C00041E00D0FEE7FFF71DFDFA218900FEF713
:10115C00E7FFFFF7EBF80420FFF702F9012022006C
:10116C0021004042FFF7A8F819B030BD70B588B027
:10117C00FFF774F8FFF7BDFF80202E4B0003596971
:10118C000024014359615A690125024080200092D4
:10119C00009A5969C0030143596180215A69890237
:1011AC00024090200192019A5A69C0050A435A6183
:1011BC005B6900220B4002932021029BFFF7A0F9F0
:1011CC0080239B0103931C4B03A91C480493059497
:1011DC00FFF7DAF89020202303A9C00503930495A8
:1011EC0005940694FFF7D0F8220021000720FFF7A2
:1011FC0063F80720FFF790F81148124B84600360E6
:10120C00E1235B0243600C23C4600461436184618D
:10121C00C46104624462FFF72BFFA04209D1FA2695
:10122C00B6003000FFF738F829002800FFF77EF9E8
:10123C00F7E7FEE70010024000002110000800480C
:10124C00240000200044004007B50120114B99698F
:10125C000143996180219A69490502400092009AE4
:10126C00DA6906380A43DA610022DB690B40019324
:10127C001100019BFFF720F80022022011004042D0
:10128C00FFF71AF80022012011004042FFF714F872
:10129C0007BDC046001002407FB50F4B02689A4252
:1012AC0017D180200D4A8002D1690143D161D369E5
:1012BC0001A903400093009B0C2301930A3B02936A
:1012CC0090200023C0050393049301330593FFF78B
:1012DC005BF807B000BDC04600440040001002405F
:1012EC0010B5FEF7CBFFFFF74AF810BD802010B504
:1012FC008001FFF70FF910BD0121114B11481A683D
:10130C000A431A605A6802405A601A680E48024032
:10131C001A601A680D4802401A605A680C4802405C
:10132C000F205A60DA6A8243DA621A6B094802406B
:10133C001A635A6B8A435A6300229A607047C046FC
:10134C00001002400CB8FF08FFFFF6FEFFFFFBFF8A
:10135C00FFFFC0FFACFEF0FF0D4885460D480E495F
:10136C000E4A002302E0D458C4500433C4188C42F3
:10137C00F9D30B4A0B4C002301E013600432A24258
:10138C00FBD3FFF7B9FF00F011F8FFF7EFFEFEE714
:10139C0000800020000000200400002070140008D1
:1013AC000400002094000020FEE7000070B5002629
:1013BC000C4D0D4C641BA410A64209D1002600F064
:1013CC0023F80A4D0A4C641BA410A64205D170BD2B
:1013DC00B300EB5898470136EEE7B300EB5898474B
:1013EC000136F2E768140008681400086814000855
:1013FC006C140008002310B59A4200D110BDCC5CCF
:10140C00C4540133F8E70000F8B5C046F8BC08BC7A
:10141C009E467047F8B5C046F8BC08BC9E4670475F
:10142C0002030405060708090A0B0C0D0E0F101019
:10143C000102030405060708090A0B0C0D0E0F1018
:10144C000004080200000000000000000102030478
:0C145C000607080900000000010203045C
:04146800E500000893
:04146C00BD000008B7
:0414700000127A00EC
:040000050800136577
:00000001FF
