:020000040800F2
:1000000080040020D1000008D9000008DB000008AF
:1000100000000000000000000000000000000000E0
:10002000000000000000000000000000DD000008EB
:100030000000000000000000DF000008950F00082D
:10004000E3000008E3000008E3000008E300000804
:10005000E3000008E3000008E3000008E3000008F4
:10006000E3000008E3000008E3000008E3000008E4
:10007000E3000008E3000008E3000008E3000008D4
:10008000E3000008E3000008E3000008E3000008C4
:10009000E3000008E3000008E3000008E3000008B4
:1000A000E3000008E3000008E3000008E3000008A4
:1000B000ED140008E3000008E3000008034885464B
:1000C00000F02AF8004800471D15000880040020B1
:1000D0000448804704480047FEE7FEE7FEE7FEE7E6
:1000E000FEE7FEE719100008BD00000830B50B461A
:1000F000014600202022012409E00D46D5409D4202
:1001000005D31D469540491B254695404019154687
:10011000521E002DF1DC30BD064C0125064E05E0D7
:10012000E36807CC2B430C3C98471034B442F7D318
:10013000FFF7C8FF581500087815000870B50024AF
:10014000014620314A78022A03D004218163012428
:1001500016E0026813680E25AB431360026813684B
:100160005B085B0013600122056C1346AB40C56B56
:100170006B604A7000220A70416B002900D08847EA
:10018000204670BDF8B5002393E0224601249C4030
:10019000A44622407ED04C68022C01D0122C0CD1F7
:1001A000DC08A40027183C6A5D07ED0E0F26AE4060
:1001B000B4430E69AE4026433E6205685E000324E8
:1001C000B4400F79A543BF07BF0FB7402F43076067
:1001D0004D68012D05D0022D03D0112D01D0122D17
:1001E0000ED18568CF68A543B7402F438760476825
:1001F0006546AF430D79ED06ED0F9D403D434560EB
:10020000C568A5438C68B4402C43C4604C68E400C6
:100210004ED52B4CA56901263543A561A4699D08DF
:1002200034400094274CAD002F19BC689D072E0F59
:100230000F25B540AC430925ED06A84201D10025A4
:1002400014E0214DA84201D101250FE01F4DA84225
:1002500001D102250AE01E4DA84201D1032505E087
:100260001C4DA84201D1042500E00525B5402543D9
:10027000BD60194C25684E689543F60300D51543BB
:10028000256065684E689543B60300D515436560E3
:10029000A56800E00CE04E689543F60200D51543D2
:1002A000A560E5684E689543B60200D51543E56044
:1002B0005B1C0A681446DA4000D066E7F8BD00000F
:1002C00000100240000001400004004800080048FF
:1002D000000C00480010004800040140002A01D032
:1002E0008161704781627047014800687047000073
:1002F0000400002002480168491C016070470000AA
:100300000400002010B50648016810221143016066
:10031000002000F007F800F017F8002010BD0000E2
:100320000020024010B5044600F078F97D21C90094
:10033000FFF7DCFE00F0C6FB00222146501E00F055
:100340002FF8002010BD000008B50F488169012278
:1003500011438161816911400091C26901040A431E
:10036000C261C0690022084000901146501F00F091
:1003700017F800221146901E00F012F800221146D4
:10038000501E00F00DF808BD00100240C106C90E55
:1003900001208840014908607047000000E100E04A
:1003A00010B500F0D5FD10BDF8B504460068434D0A
:1003B000C00352D5E8690026C00007D4E9692804C3
:1003C0000143E961E9690140012600913C48016867
:1003D000C90510D40168821511430160FFF784FF3D
:1003E000074604E0FFF780FFC01B642824D8344888
:1003F0000068C005F6D5286A03273F02384020D0A0
:100400006168394081421CD0286A2A6AB8430121B8
:1004100009040A432A622A6A8A432A622862C007B8
:100420000FD0FFF761FF009008E0FFF75DFF009934
:10043000411A2448814201D90320F8BD286A800767
:10044000F3D5286A6168B84308432862002E04D0B7
:10045000E869012109078843E8612078C00705D0D1
:10046000286BA168800880000843286320788007F3
:1004700006D5286B032109048843E16808432863F3
:100480002068400306D5286B03218904884321692D
:10049000084328632078800605D5286B10218843FF
:1004A0006169084328632088400505D5286B4021F1
:1004B0008843A169084328630020F8BD001002406A
:1004C0000070004088130000F8B505464E480E46FF
:1004D0000068C007C00FB0420AD24B480168490803
:1004E0004900314301600068C007C00FB04270D1BD
:1004F0002878464C800705D56068F0218843A968B4
:10050000084360602878C00753D06868012817D076
:10051000022818D0032819D021688907002958DA41
:1005200061688908890001436160FFF7DDFE696841
:100530000746012913D002291DD0032927D034E012
:1005400021688903EAE721688901E7E7616BC9034C
:10055000E4E7FFF7C9FEC11B2D48814223D860683C
:100560000007800F0128F4D123E0FFF7BDFEC11B77
:100570002748814217D860680007800F0228F4D10D
:1005800017E0FFF7B1FEC11B214881420BD860681C
:100590000007800F0328F4D10BE0FFF7A5FEC11B75
:1005A0001B48814201D90320F8BD60680007800F15
:1005B000F3D115480168C907C90FB1420BD90168C9
:1005C00049084900314301600068C007C00FB042CC
:1005D00001D00120F8BD2878400706D560680721C2
:1005E00009028843E9680843606000F02DF86168FB
:1005F000084A0906090F515CC840074908600020F5
:10060000FFF790FE0020F8BD0020024000100240DD
:100610008813000040150008080000200148006809
:100620007047000008000020044805490068496838
:10063000044A4905490F515CC84070470800002032
:10064000001002405015000830B516A30FCB89B03A
:100650006C460FC417A30FCB0FC41A494A680C206D
:10066000144604401848042C05D0184B082C04D01C
:100670000C2C00D1184609B030BD9402240F6D46F1
:100680002C5DC96A04AD0907090FD203695C920F9A
:10069000022A02D0032A00D11846FFF727FD604343
:1006A000E9E7000002030405060708090A0B0C0D20
:1006B0000E0F10100102030405060708090A0B0CAF
:1006C0000D0E0F100010024000127A00006CDC02C8
:1006D000FEB504460078F04EF04DC00748D068687B
:1006E0000007800F01281FD068680007800F0228CC
:1006F00004D16868C003800F022815D06168012901
:1007000019D001208004002901D0052917D02968BB
:10071000B1432960296881432960606800281BD0A3
:10072000FFF7E2FD074613E02868800320D56068E4
:10073000002876D01CE0286830432860EDE729685F
:1007400001432960F7E7FFF7CFFDC01B642869D894
:1007500028688003F7D50BE0FFF7C6FD074604E0E5
:10076000FFF7C2FDC01B6428F1D828688003F7D4C6
:10077000207880073ED568680007800F14D068682D
:100780000007800F022804D16868C003800F012889
:100790000AD0E068002828681DD00121084328609D
:1007A000FFF7A2FD07460BE0286880070BD5E0683D
:1007B000012836D107E0FFF797FDC01B0228C6D8F5
:1007C00028688007F7D52868F82188432169C9007F
:1007D000084328600EE0400840002860FFF784FDD1
:1007E000074604E0FFF780FDC01B0228AFD8286849
:1007F0008007F7D42078000724D5E0690028686ACC
:1008000011D0012108436862FFF76EFD074604E03E
:10081000FFF76AFDC01B022899D8686A8007F7D5E0
:1008200010E036E1D1E0400840006862FFF75CFD6F
:10083000074604E0FFF758FDC01B022887D8686A06
:100840008007F7D4207804274007002861DA0020C9
:100850000190E869C00008D4E969B8060143E9617C
:10086000E96901400120009101908D480168C905A6
:1008700011D40168821511430160FFF735FD009026
:1008800005E0FFF731FD0099401A642897D88448A5
:100890000068C005F5D5A06801280AD0002801D05D
:1008A000052811D0286A400840002862286AB84309
:1008B00002E0286A012108432862A068002812D0BB
:1008C000FFF712FD00900AE0286A38432862F0E73B
:1008D000FFF70AFD0099411A7248814275D8286ACB
:1008E0008007F5D50DE0FFF7FFFC009006E0FFF76D
:1008F000FBFC0099411A6B48814266D8286A800740
:10090000F5D40198002804D0E9690120000781434B
:10091000E9612078C00635D5606901280CD0401DFA
:10092000686B24D038436863686B40084000686394
:10093000FFF7DAFC074622E0686B38436863686BB0
:10094000012108436863FFF7CFFC074604E0FFF787
:10095000CBFCC01B022838D8686B8007F7D5686BC2
:10096000F8218843A169C900084368630AE0B843D5
:100970006863F4E7FFF7B8FCC01B022825D8686B52
:100980008007F7D42078800637D568680007800F85
:10099000032813D068680007800F022804D1686814
:1009A000C003800F032809D0206A0028686B16D086
:1009B00030436863FFF798FC06460CE0686BC003A1
:1009C0001BD5206A012864D117E05BE0FFF78CFC9F
:1009D000801B022856D8686BC003F7D50DE0B043E2
:1009E0006863FFF781FC064604E0FFF77DFC801B8F
:1009F000022847D8686BC003F7D4606A002846D045
:100A000069680907890F022943D0012636060228A2
:100A1000286805D0B0432860FFF766FC044633E041
:100A2000B0432860FFF760FC074604E0FFF75CFC7A
:100A3000C01B022826D828688001F7D4E86A216BF9
:100A4000000900010843E862A16AE06A0843696896
:100A50007B22D203914308436860286830432860B2
:100A6000FFF742FC044604E0FFF73EFC001B0228AF
:100A700008D828688001F7D509E0FFF735FC001B8E
:100A8000022801D90320FEBD28688001F5D400208A
:100A9000FEBD0120FEBD000000000100001002406C
:100AA00000700040881300000422044904280869EB
:100AB00002D09043086170471043FBE700E000E07C
:100AC00070470000094910B5401E884201D9012035
:100AD00010BD074C60610321081F00F039FA0020A7
:100AE000A06107202061002010BD0000FFFFFF0073
:100AF00000E000E010B5FFF7E3FF10BD704770475E
:100B0000F8B503680446D869196805072D0F07D1A1
:100B1000820605D58A0603D5204600F075FBF8BD90
:100B20009A68002D64D0D507ED0FFF2621360E40C0
:100B30002E435DD0C60706D0CE0504D501261E6221
:100B4000E36E3343E366870702230426002F06DAA9
:100B5000D70704D027683B62E76E3743E76647074D
:100B600006D5D20704D022681662E26E1A43E26606
:100B7000020709D520220A402A4305D0236808220B
:100B80001A62E36E1343E366E26E002AC7D0800662
:100B900004D5880602D5204600F036FBE06E00073B
:100BA00003D42068806840061CD5204600F010FB66
:100BB00020688168490611D581684022914381608F
:100BC000606E00280AD01A494163606EFFF7B6FADA
:100BD0000028A4D0606E416B8847F8BD2046FFF71F
:100BE0008EFFF8BD2046FFF78AFF0020E066F8BDC3
:100BF000C5020DD552020BD5012000051862202137
:100C000020466030417281722046FFF777FFF8BDC1
:100C1000020605D50A0603D5204600F003FCF8BD00
:100C20004006FCD54806FAD5204600F0E0FAF8BDAB
:100C3000BD11000870B5040005D025466035687AFE
:100C4000002802D006E0012070BD00202872204656
:100C500000F026F8242068722068016849084900DD
:100C60000160204600F00EFB0128EDD0606A0028EC
:100C700002D0204600F0FEF9206841680922D20225
:100C800091434160206881682A22914381602068F5
:100C90000168012211430160204600F051FA70BD45
:100CA00000B50068124987B088421ED11148C26958
:100CB000012149040A43C261C069084005900C2023
:100CC00000900220019000200290039001200490E7
:100CD00009206946C006FFF755FA002211461C207C
:100CE000FFF75EFB1C20FFF751FB07B000BD0000C3
:100CF0000044004000100240F0B5034660339C7A87
:100D0000202C44D100290BD0002A09D00125846869
:100D10002D03AC4206D10669002E03D1CE0701D0C7
:100D20000120F0BD1E7A012E31D001261E724165D0
:100D3000014640310A834A83FF27AC4204D102694D
:100D4000002A12D1134A0EE07F22002C08D0012580
:100D50002D07AC420AD10469002C04D03F2202E0E6
:100D60000469002C01D08A8300E08F830021C166D2
:100D700022229A72197201688A6832438A60006876
:100D80000168FF222132114301600020F0BD0220E2
:100D9000F0BD0000FF01000010B50B4900680968B4
:100DA000884210D1094C2078612807D10A230122FA
:100DB0002146054800F00CF800202070012203496C
:100DC0000148FFF799FF10BD0C0000200000002033
:100DD000FFB5064604466036707A83B00D4620287B
:100DE00058D1002D0CD00598002809D00120A16809
:100DF0000003814207D12069002804D1E80702D00E
:100E0000012007B0F0BD307A012843D001203072B4
:100E10000020E06621207072FFF766FA01902746F5
:100E20004037059838820598788218E0788A401E05
:100E3000788206980090002280212046019B00F0D5
:100E400024FB002818D10120A1680003814202D1AF
:100E50002069002812D02168287808856D1C788ABE
:100E60000028E3D106980090002240212046019BF3
:100E700000F00BFB002808D00320C2E72888216877
:100E8000C005C00D0885AD1CE9E720207072002068
:100E90003072B6E70220B4E77047000030B51B4857
:100EA00087B042690121C9040A43426142690A408C
:100EB00005924269C9000A43426142690A400592AB
:100EC000426949110A434261406909250840ED061B
:100ED0000590002220212846FFF700FA0120400358
:100EE00000900B4800240190694602940948FFF7DE
:100EF00049F9202000900120019002946946039452
:100F00002846FFF73FF907B030BD0000001002404F
:100F1000000021100008004810B50C480A49016083
:100F2000E1214902416000218160C160016181616C
:100F3000C1610C22016242614162FFF77BFE002821
:100F400000D0FEE710BD0000004400400C0000206F
:100F50008307FF22DB0E9A408907090E994000287B
:100F60000BDA0007000F0838830808489B001818A0
:100F7000C36993430B43C3617047830804489B00D4
:100F80001B181868904308431860704700ED00E094
:100F900000E400E010B5FFF7ADF9FFF7ABFD10BDC1
:100FA00030B599B002240120102109940491C103A5
:100FB00000940A9105210390C9040C900B91684696
:100FC000FFF786FB002800D0FEE7072000250DA9CB
:100FD00031C101210DA81095FFF776FA002800D045
:100FE000FEE711A814951194FFF7DEF9002800D050
:100FF000FEE7FFF713FB7D21C900FFF777F8FFF746
:1010000061FD0420FFF750FD00221146501EFFF73E
:10101000C7F919B030BD0000124801680122114320
:1010200001604168104A1140416001680F4A114057
:1010300001600168012292049143016041683F22EE
:10104000120491434160C16A09090901C162016B3F
:10105000074A11400163416B49084900416300217F
:1010600081607047001002400CB8FF08FFFFF6FED9
:10107000ACFEF0FF10B5818CC90707D001684A6843
:1010800001235B049A43836A1A434A60818C89076F
:1010900007D501684A6801231B049A43C36A1A43AF
:1010A0004A60818C490707D501684A6801239B047F
:1010B0009A43036B1A434A60818C090707D501687C
:1010C0004A680123DB039A43436B1A434A60818CCD
:1010D000C90607D50268916801231B039943836BF6
:1010E00019439160818C890607D501688A680123BC
:1010F0005B039A43C36B1A438A60818C490612D5FD
:1011000003685A6801210905046C8A4322435A6026
:10111000026C8A4207D10268516803235B05994338
:10112000436C19435160818C090607D501684A68F0
:101130000123DB04806C9A4302434A6010BD000027
:10114000F8B500250446C566FFF7CEF806461749F0
:101150002068884205D01649884202D01549884245
:101160001DD10068144F000709D501213346002224
:1011700049052046009700F088F900280DD1206825
:10118000006840070BD5012133460022890520461F
:10119000009700F07AF9002801D00320F8BD202044
:1011A00060346072A07225720020F8BD00380140E2
:1011B0000044004000480040FFFFFF0110B5406AB6
:1011C0000022014640314A834A82FFF798FC10BD55
:1011D00001680A68FF2321339A430A6001688A681C
:1011E000520852008A60202160308172704710B529
:1011F00001680A6840239A430A60202269210A5440
:10120000FFF74AFE002010BD70B50246403203468B
:101210006033948B9D7A0168222D05D0886908225D
:1012200010438861022070BD898C012685683603D1
:10123000B54202D10569002D0BD02140446D651CDB
:1012400045652170518B491E0904090C518307D053
:1012500015E0456D21402980416D891C4165F1E70C
:1012600001680A68FF242134A2430A6001688A6881
:10127000520852008A6020219972FFF78DFD0020EC
:1012800070BD0000F8B504462369A268E5691A43F9
:10129000636910202B43002125681A432B680E46F2
:1012A000544F3B4013432B6023685A6803252D039A
:1012B000AA43E5682A435A60236AA26925681A434B
:1012C000AB680B273F02BB431343AB604A4F256813
:1012D0004A4B0203BD420AD11B6B9B079B0F3AD0BE
:1012E000012B25D0022B25D0032B35D11EE0444FF6
:1012F000BD420AD11B6B03273F043B402BD09B1AF6
:1013000016D09B1A16D09B1A0EE03E4FBD4213D149
:101310001F6B03239B041F401DD001239B04FF1A56
:1013200006D0FF1A06D0FB1A002B15D1022013E0BD
:10133000042011E008200FE0334B9D420BD0334BCB
:101340009D4208D0324B9D4205D0324B9D4202D087
:10135000314B9D4200D100200123E769DB039F420E
:1013600022D100280CD002280DD0042813D0082840
:1013700017D001260A0912010807400F10432EE07A
:10138000FFF752F909E06168244A48088018FEF71F
:10139000ADFE81B2EEE7FFF757F9616840004A08F9
:1013A000F4E761684808F1E7002808D0022809D06E
:1013B00004280CD0082815D001263046F8BDFFF7C8
:1013C00033F906E06168164A480880180DE0FFF717
:1013D0003BF961684A088018FEF788FE80B22168F0
:1013E000C860EAE761684808C018FEF77FFE80B26F
:1013F000E860E2E7F369FFEF0038014000100240C7
:101400000044004000480040004C004000500040B4
:101410000014014000180140001C01400024F400A9
:1014200000127A006921095C212901D0022070474D
:1014300002464032518A002912D0012381681B03E1
:10144000994202D10169002915D0C16C4B1CC364BB
:10145000006809780185508A401E5082002070473C
:1014600001680A6880239A430A6000680168402284
:1014700011430160F2E7C16C03680988C905C90D11
:101480001985C16C891CC164E5E7FFB581B01746B9
:101490000E4604460A9D1DE0681C1BD0002D05D099
:1014A000FEF722FF0499401AA84213D92068016868
:1014B000FF22A132914301602068816849084900F8
:1014C0008160202060346072A072002020720320AE
:1014D00005B0F0BD2068C1693046884304D00020C3
:1014E000B842D9D00020F3E70120F9E710B502484F
:1014F000FFF706FB10BD00000C00002002E008C84A
:10150000121F08C1002AFAD170477047002001E07D
:1015100001C1121F002AFBD170470000FEF7F2FE46
:10152000FFF73EFDFFF7BAFCFFF7F6FC0122024988
:101530000248FFF7E1FBFEE7000000200C0000205E
:101540000000000000000000010203040607080973
:1015500000000000010203047815000800000020CC
:101560000C000000FC140008841500080C0000208A
:10157000740400000C1500080000000000000000CA
:0415800000127A00DB
:04000005080000BD32
:00000001FF
