:020000040800F2
:100000000080002091170008E1170008E1170008A0
:1000100000000000000000000000000000000000E0
:10002000000000000000000000000000E1170008D0
:100030000000000000000000E1170008151700088C
:10004000E1170008E1170008E1170008E1170008B0
:10005000E1170008E1170008E1170008E1170008A0
:10006000E1170008E1170008E1170008E117000890
:10007000E117000821170008E1170008E117000840
:10008000E1170008E1170008E1170008E117000870
:10009000E1170008E1170008E1170008E117000860
:1000A000E1170008E1170008E1170008E117000850
:0C00B000E1170008E1170008E117000844
:1000BC0010B5064C2378002B07D1054B002B02D032
:1000CC00044800E000BF0123237010BD0400002091
:1000DC000000000040180008044B10B5002B03D0A2
:1000EC000349044800E000BF10BDC04600000000FA
:1000FC00080000204018000802B471464908490065
:10010C00095649008E4402BC7047C04602B4714681
:10011C0049084900095C49008E4402BC7047C0463E
:10012C00002243088B4274D303098B425FD3030A2A
:10013C008B4244D3030B8B4228D3030C8B420DD33D
:10014C00FF22090212BA030C8B4202D312120902CB
:10015C0065D0030B8B4219D300E0090AC30B8B4209
:10016C0001D3CB03C01A5241830B8B4201D38B03B7
:10017C00C01A5241430B8B4201D34B03C01A52415C
:10018C00030B8B4201D30B03C01A5241C30A8B429F
:10019C0001D3CB02C01A5241830A8B4201D38B028A
:1001AC00C01A5241430A8B4201D34B02C01A52412E
:1001BC00030A8B4201D30B02C01A5241CDD2C309A0
:1001CC008B4201D3CB01C01A524183098B4201D31C
:1001DC008B01C01A524143098B4201D34B01C01A07
:1001EC00524103098B4201D30B01C01A5241C3087F
:1001FC008B4201D3CB00C01A524183088B4201D3EE
:10020C008B00C01A524143088B4201D34B00C01AD9
:10021C005241411A00D20146524110467047FFE745
:10022C0001B5002000F006F802BDC0460029F7D049
:10023C0076E770477047C04610B5040000F076FCB6
:10024C00FA218900FFF76CFF00F060F80120002212
:10025C002100404200F020F8002010BD1023064A77
:10026C0010B5116800200B431360FFF7E5FF01F098
:10027C00E3F9002010BDC04600200240024A13687A
:10028C00013313607047C04620000020014B1868F2
:10029C007047C0462000002070B58901002814DA90
:1002AC000F23C0B20340083B114A9B089B009B18CC
:1002BC00032210409040FC321500114085408140D3
:1002CC00DC69AC432143D96170BD03258308284008
:1002DC00A840FC352E00074A9B009B18C022864084
:1002EC002940814092009C58B44321439950EBE73C
:1002FC0000ED00E000E100E01F2318401E3B8340AE
:10030C00014A13607047C04600E100E0094A431EF1
:10031C00012093420DD8C021074A08485360036A54
:10032C0009061B021B0A0B43036200200723906083
:10033C0013607047FFFFFF0010E000E000ED00E0ED
:10034C00054B1A68042802D1104318607047042129
:10035C008A431A60FAE7C04610E000E0704710B517
:10036C00FFF7FCFF10BD0000F0B5564A0B68821871
:10037C00541EA24189B00393002304320592039AC0
:10038C00DA4001D109B0F0BD01229A40944664468E
:10039C00039A2240029200D192E04A680192102204
:1003AC00019E9643022E0DD107240F271C40A4005A
:1003BC00A740DA0892008218156ABD430F69A7405E
:1003CC003D431562032214005D00AC40E443076812
:1003DC00013E27400497019F3A40AA40049F3A43AC
:1003EC000260012E0ED8CA688668AA4026403243A5
:1003FC008260624646689643019AD206D20F9A40B2
:10040C0032434260C26814408A68AA401443019A7D
:10041C00C460D20054D501262B4A1D009469344384
:10042C00946192699C0832400792079A274AA4006B
:10043C00A418A268944603221540AD000C32AA40C1
:10044C00674697439022D2059446002260450DD012
:10045C001F4A94463200604508D01E4E9218B04296
:10046C0004D01D4E0132B04200D0059AAA403A4346
:10047C00A2601A4A029C1668029D019FE443354310
:10048C00FF0301D43500254015605668029D019F7D
:10049C003543BF0301D43500254055609668029D55
:1004AC00019F3543FF0201D4350025409560D56886
:1004BC00029E019F2E43BF0201D425402E00D66020
:1004CC0001335CE700F0FFB7001002400000014070
:1004DC000004004800080048000C004800040140DB
:1004EC00002A01D0816170478162FCE74369594061
:1004FC0041617047F0B5036885B00500DB0733D464
:10050C002B689B0700D58AE02B681B0700D5CAE037
:10051C002B685B0700D5EDE02B68DB061AD56A6902
:10052C00BC4C0423012A00D059E1616B02260B4319
:10053C006363636B1A436263FFF7A8FE0700636B88
:10054C00334200D144E1F821626BAB698A43DB0092
:10055C00134363632B689B0600D567E1696A002926
:10056C0000D0A4E1002018E00C21AA4C62680A40DB
:10057C00042A0BD063680B40082B10D1C02263688F
:10058C005202134080225202934208D123689B03EB
:10059C00B6D56B68002BB3D1012005B0F0BD6B68EC
:1005AC00012B13D1802322685B0213432360FFF7D6
:1005BC006DFE80260700B60223683342A0D1FFF7F8
:1005CC0065FEC01B6428F7D90320E6E7002B16D183
:1005DC002368914A80261340236023688F4AB60211
:1005EC0013402360FFF752FE07002368334200D10B
:1005FC0086E7FFF74BFEC01B6428F6D9E4E7052B12
:10060C0005D180232268DB0213432360CAE72368E9
:10061C00814A134023602368804A1340C6E70C22AA
:10062C007C4C636813420BD063681340082B15D1C4
:10063C00C0226368520213408022120293420DD1F1
:10064C0023689B0702D5EB68012BA5D1F821226802
:10065C002B698A43DB001343236055E7EA680123C7
:10066C00002A0FD02268022613432360FFF70EFEE8
:10067C00070023683342E9D1FFF708FEC01B0228AC
:10068C00F7D9A1E7226802269A432260FFF7FEFD04
:10069C0007002368334200D136E7FFF7F7FDC01B94
:1006AC000228F6D990E7EA6901235A4C002A10D0A7
:1006BC00626A022613436362FFF7E8FD0700636A70
:1006CC00334200D024E7FFF7E1FDC01B0228F6D926
:1006DC007AE7626A02269A436262FFF7D7FD070047
:1006EC00636A334200D113E7FFF7D0FDC01B022829
:1006FC00F6D969E780220021464C5205E369009146
:10070C00134208D1E3691343E361E3691340039394
:10071C00039B012300938027414E7F0033683B42AB
:10072C0006D0AB68012B13D1226A1343236230E04D
:10073C0033683B433360FFF7A9FD019033683B42BC
:10074C00EFD1FFF7A3FD019BC01A6428F6D93BE754
:10075C000122002B14D1236A022793432362236ABC
:10076C00033293432362FFF791FD0600236A3B4259
:10077C0025D0FFF78BFD2B4B801B9842F6D923E736
:10078C00052B0BD1216A013B0B432362236A1A43CD
:10079C002262FFF77BFD022706000DE0236A9343DC
:1007AC0004222362236A9343C0E7FFF76FFD1D4BBE
:1007BC00801B984200D907E7236A3B42F5D0009B87
:1007CC00012B00D0A8E6E369174A1340E361A3E6C6
:1007DC00FFF75CFDC01B022800D8B0E6F4E605323A
:1007EC0003D1626B9A436263ADE6626B02261343DC
:1007FC0001226363636B93436363FFF747FD070059
:10080C00636B334200D1A5E6FFF740FDC01B022805
:10081C00F6D9D9E600100240FFFFFEFFFFFFFBFFF9
:10082C000070004088130000FFFFFFEF0C21464CC6
:10083C0062680A408A4209D063680B40082B0ED1CB
:10084C00C022636852021340934208D1636BDB03EE
:10085C0000D483E62B6A012B00D09DE67EE62B6A42
:10086C00002B11D08026636B760233436363FFF752
:10087C000DFD0700636B334200D06FE6FFF706FDFA
:10088C00C01B0228F6D99FE6636B304A80261340C2
:10089C006363FFF7FBFC07007602636B334200D106
:1008AC005CE6FFF7F3FCC01B0228F6D98CE60C22A1
:1008BC00254C63681340082B00D16DE62368244A4D
:1008CC001340236002292FD1FFF7E0FC802607009C
:1008DC00B6042368334221D10F22E36A93432A6B77
:1008EC001343E362A96AEB6A62680B4319498025DA
:1008FC000A4013436360802322685B041343236024
:10090C00FFF7C4FC0600AD0423682B4200D029E697
:10091C00FFF7BCFC801B0228F6D955E6FFF7B6FCA6
:10092C00C01B0228D5D94FE6FFF7B0FC8025060086
:10093C00AD0423682B4200D114E6FFF7A7FC801B03
:10094C000228F6D940E6C04600100240FFFFFEFF29
:10095C00FFFFFFFEFF7FC2FF70B5194C88B010225D
:10096C002100684600F05CFF210004AD102210311C
:10097C00280000F055FF0C22124E73681A40082A0A
:10098C0004D00C2A1AD1104808B070BD0F206A464A
:10099C00990C0140545CF26A0240A95CC022802090
:1009AC00520213404002834201D1084802E09342B4
:1009BC00FBD10548FFF7B4FB6043E5E70348E3E7E9
:1009CC005818000800100240006CDC0200127A007B
:1009DC00F7B501224F4C06002368019113408B425E
:1009EC001FD33268930728D4D3072ED4012322684F
:1009FC0001991A40914200D27EE03368464C5B0765
:100A0C0000D580E0FFF7A8FF6368444A1B061B0F64
:100A1C00D35CD840424B18600020FFF70DFC00203F
:100A2C000AE02368019993430B4323602368134026
:100A3C00019A9A42D5D00120FEBDF02036494B6870
:100A4C008343B06803434B60CEE77268324D012A92
:100A5C001AD12B689B03EED503216B688B43134390
:100A6C006B60FFF713FC73680700012B1CD10C2281
:100A7C006B681340042BB9D0FFF708FC294BC01B43
:100A8C009842F4D90320D7E7022A03D12B689B01A3
:100A9C00E2D4D0E7032A03D16B6BDB03DCD4CAE7C7
:100AAC002B689B07D8D4C6E7022B0BD10C226B68A2
:100ABC001340082B9AD0FFF7E9FB1A4BC01B984246
:100ACC00F4D9DFE7032B11D00C226B68134200D151
:100ADC008CE7FFF7DBFB134BC01B9842F4D9D1E733
:100AEC00FFF7D4FB0F4BC01B9842CBD80C226B6882
:100AFC0013409342F4D179E722689A43226022682A
:100B0C001A4298D179E76368074A1340F268134395
:100B1C00636077E700200240001002407C18000858
:100B2C000000002088130000FFF8FFFF014B18683D
:100B3C007047C04600000020044B054A5B685B050B
:100B4C005B0FD35C034A1068D8407047001002401A
:100B5C008C18000800000020F0B5036885B0050073
:100B6C00DB0328D580220021444C5205E369009117
:100B7C00134208D1E3691343E361E3691340039320
:100B8C00039B0123009380273D4E7F0033683B423B
:100B9C0041D0C022236A920013403A4E4DD1236AB1
:100BAC001E406B681E43009B2662012B03D1E36938
:100BBC00354A1340E3612B68DA0706D503202F4929
:100BCC000A6B8243A86802430A639A0706D52B492D
:100BDC002E480A6B0240E86802430A635A0306D5A2
:100BEC0026492B480A6B0240286902430A639A067D
:100BFC0006D5102021490A6B8243686902430A63B7
:100C0C0000205B0517D540211C4A136B8B43A96947
:100C1C000B4313630FE033683B433360FFF736FB42
:100C2C00019033683B42B4D1FFF730FB019BC01AF3
:100C3C006428F6D9032005B0F0BD69680A409342D8
:100C4C00ADD08023226A206A11005B020343236229
:100C5C00236A10483140034023622162D3079ED59A
:100C6C00FFF714FB07000222236A134297D1FFF708
:100C7C000DFB094BC01B9842F5D9DBE70010024075
:100C8C0000700040FFFCFFFFFFFFFFEFFFFFFCFFCA
:100C9C00FFFFF3FFFFFFFEFF881300000122036834
:100CAC00D96800201143D96019680A431A6070474B
:100CBC0070477047704770470222036810B5196976
:100CCC00040011420ED0D96811420BD0053A1A61BA
:100CDC009B69043202779B0700D179E0FFF7E9FFAB
:100CEC0000232377042223681969114210D0D96894
:100CFC0011420DD0093A1A61073222779A69C02342
:100D0C009B0020001A4269D0FFF7D3FF0023237702
:100D1C0008222368196911420ED0D96811420BD0F0
:100D2C00113A1A61DB690D32227720009B075BD0E8
:100D3C00FFF7BFFF002323771022236819691142A4
:100D4C0010D0D96811420DD0213A1A61193222778C
:100D5C00DA69C0239B0020001A424BD0FFF7A9FF91
:100D6C0000232377012223681969114207D0D9681F
:100D7C00114204D0033A1A61200000F085FB802256
:100D8C0023681969114208D0D968114205D0023A7A
:100D9C00FF3A1A61200000F081F94022236819699A
:100DAC00114207D0D968114204D0813A1A6120004F
:100DBC00FFF781FF202223681969114207D0D968F7
:100DCC00114204D0413A1A61200000F066F910BDBE
:100DDC00FFF76EFF2000FFF76DFF81E7FFF768FF5D
:100DEC002000FFF767FF91E7FFF762FF2000FFF796
:100DFC0061FF9FE7FFF75CFF2000FFF75BFFAFE7AA
:100E0C00204A10B50368904206D08024E405A04225
:100E1C0002D01D4CA0420CD17024A3434C68234338
:100E2C00904212D08024E405A0420ED0164CA04271
:100E3C000BD0164CA04208D0154CA04205D0154C36
:100E4C00A04202D0144CA04203D1144C2340CC68D5
:100E5C0023438024A3434C69234303608B68C36200
:100E6C000B688362904208D0094B984205D0094B1D
:100E7C00984202D0084B984201D10B6903630123BD
:100E8C00436110BD002C01400004004000200040D4
:100E9C00004001400044014000480140FFFCFFFFBE
:100EAC0070B504000120002C14D025003D352B78A2
:100EBC00DBB2002B05D122003C321370200000F075
:100ECC00E3FB022320682B70211DFFF799FF012300
:100EDC0000202B7070BD000030B58468034D0A43B0
:100EEC001B022C4013432343836030BDFF00FFFFE4
:100EFC00F8B5050002233C352A7804001800012AB5
:100F0C0019D02600012720683D362F703370836876
:100F1C004F4A134083600B68402B00D16FE016D80A
:100F2C00102B00D187E007D8002B00D17DE00123E6
:100F3C00002033702870F8BD202B00D181E0302BBD
:100F4C00F5D17022836893431A00372355E0702B38
:100F5C0033D01BD8502B3BD0602BE8D110244B68DE
:100F6C00CA68016A3B4FA1430162846912033C4089
:100F7C002243A024016A82617022A1431B010B430E
:100F8C000362836893431A00672336E08022520180
:100F9C0093420DD0802292019342C8D1CB684A680B
:100FAC008968FFF799FF80232268DB0191680CE0C8
:100FBC000722836893438360B9E7CB684A688968E2
:100FCC00FFF78AFF7721226893680B439360AEE7A3
:100FDC004A68CB68016A046A1B01BC43F0270462AF
:100FEC008469BC4323430A24A1430A4383610262FC
:100FFC007022836893431A0057231343DBE74A6834
:10100C00CB68016A046A1B01BC43F0270462846943
:10101C00BC4323430A24A1430A4383610262702226
:10102C00836893431A004723E7E77022836893434E
:10103C001A000723E1E77022836893431A001723F1
:10104C00DBE77022836893431A002723D5E7C04659
:10105C008800FFFFFF0FFFFF30B504003C342278FF
:10106C0003000220012A17D01D001B683D35287093
:10107C005A686E3082435A605A680868496802435D
:10108C0080205A609A6882439A609A6800200A43CA
:10109C009A6001232B70207030BD704770470000A0
:1010AC0070B504000568C369826800692968024349
:1010BC00606902435C481A4301400A432A606A682B
:1010CC005A49206A0A40E1680A436A60A269A96821
:1010DC000243574801400A43AA60564A954212D12E
:1010EC000321554A126B0A405449885C8022120233
:1010FC0093425CD008281AD8FFF708F878192619FB
:10110C007D19191980004E4A954227D1C0218020A3
:10111C00494A8902126B40020A40824200D172E0B5
:10112C0007D8002A39D08022120293425BD00120CA
:10113C0058E080208002824200D16BE08A42F2D1DA
:10114C008022120293423BD061683E4B4808C01883
:10115C00FEF7E6FF80B2E860002043E03A4A954291
:10116C000CD1C0218020344A0903126BC0020A4002
:10117C00824248D0D5D980200003DCE7334A95421F
:10118C000BD0334A954208D0324A954205D0324AA8
:10119C00954202D0314A9542C5D180221202934227
:1011AC0024D1FFF7C9FC636840005B080BE00828FA
:1011BC0019D8FEF7A1FFF61805182C1818183300CB
:1011CC0063685808264BC0186168FEF7A9FF83B204
:1011DC0000200F22190091430A001B0721685B0FA6
:1011EC001343CB6070BD01200023F2E7FFF7A4FC92
:1011FC0061684B08ABE7FFF7AFFBF9E78023616849
:10120C001B024808A3E7802212029342F3D1FFF796
:10121C00A3FBC8E7802212029342EFD163685808FF
:10122C0080235B02CFE7C046F369FFEFFFCFFFFFE0
:10123C00FFF4FFFF0038014000100240781800084E
:10124C000044004000127A0000480040004C00406E
:10125C00005000400014014000180140001C0140E7
:10126C000024F400436A30B5DA0706D50168284C2F
:10127C004A682240846A22434A609A0706D501686C
:10128C00244C4A682240C46A22434A605A0706D555
:10129C000168214C4A682240046B22434A601A07B9
:1012AC0006D501681D4C4A682240446B22434A60B3
:1012BC00DA0606D501681A4C8A682240846B2243F0
:1012CC008A609A0606D50168164C8A682240C46B5F
:1012DC0022438A605A0610D50168134D4A68046C83
:1012EC002A4022434A6080225203944205D14A6824
:1012FC000E4C2240446C22434A601B0606D5026801
:10130C000B4953680B40816C0B43536030BDC04696
:10131C00FFFFFDFFFFFFFEFFFFFFFBFFFF7FFFFF58
:10132C00FFEFFFFFFFDFFFFFFFFFEFFFFFFF9FFF61
:10133C00FFFFF7FFF8B504000E0015001F00226830
:10134C00D36933409B1B59424B41AB4201D0002027
:10135C0018E0069B0133F3D0069B002B13D12368B6
:10136C000C491A6803200A401A609A68A331FF31AD
:10137C008A439A6022002023693213705370002331
:10138C0068342370F8BDFEF781FF069BC01B8342B7
:10139C00D5D2E4E75FFEFFFF002337B50400C36638
:1013AC00FEF774FF2368194A050093420ED0184AC1
:1013BC0093420BD0174A934208D0220020230020DE
:1013CC00693268341370537020703EBD1B681B0764
:1013DC000FD423681B685B07EFD580210E4B0022CE
:1013EC000093C9032B002000FFF7A4FF00280BD1AA
:1013FC00E3E78021084B0022009389032B00200097
:10140C00FFF798FF0028E4D00320DEE70038014006
:10141C000044004000480040FFFFFF0170B5041E6F
:10142C0001D1012070BD050069352B78DBB2002B92
:10143C0004D102006832137000F042F92423012118
:10144C0022682B70136820008B431360FFF728FE73
:10145C000128E6D0636A002B02D02000FFF702FFC0
:10146C00236808495A6820000A402A215A609A6861
:10147C008A439A60012219680A431A60FFF78CFFAD
:10148C00D0E7C046FFB7FFFF054B02681B6810B5DD
:10149C009A4204D190202021C005FFF727F810BDF7
:1014AC0024000020102330B599B00F9380231B0229
:1014BC001593A023022401259B030BA80B940E95D6
:1014CC00149416931795FFF715F8002800D0FEE733
:1014DC000723029003902900684600930194FFF7BC
:1014EC0077FA002800D0FEE7079004A80494FFF7D1
:1014FC0033FB041E00D0FEE7FFF718FBFA2189002E
:10150C00FEF70EFEFEF702FF0420FEF719FF012086
:10151C00220021004042FEF7BFFE19B030BD000092
:10152C0010B58AB0FEF79AFEFFF7BCFF8020394B4E
:10153C00000359690024014359615A690240802013
:10154C000092009A5969C0030143596180215A697C
:10155C008902024090200192019A5A69C0050A43FF
:10156C005A615B6900220B4002932021029BFEF71B
:10157C00B7FF80239B010593274B05A927480693AA
:10158C000794FEF7F1FE202390200593C0051F3B26
:10159C0005A9069307940894FEF7E6FE2048214B14
:1015AC0084600360E1235B0243600C23C46004612C
:1015BC0043618461C46104624462FFF72FFFA0425F
:1015CC0000D0FEE7184C194BA0602360184B20612B
:1015DC006360184B6061A0612000E360FFF760FC62
:1015EC00002800D0FEE7802305A95B0120000593AD
:1015FC00FFF77EFC002800D0FEE70390049003A9BF
:10160C002000FFF729FD002800D0FEE72000FFF79F
:10161C0045FBFEE7001002400000211000080048C6
:10162C00640000200044004024000020002C0140F5
:10163C007FBB0000E703000007B50120114B99693F
:10164C000143996180219A69490502400092009AF0
:10165C00DA6906380A43DA610022DB690B40019330
:10166C001100019BFEF718FE0022022011004042DF
:10167C00FEF712FE0022012011004042FEF70CFE84
:10168C0007BDC0460010024007B50B4B02689A42DA
:10169C0011D18020094A000191690143916193693C
:1016AC000022034001930D201100019BFEF7F4FD75
:1016BC000D20FEF721FE07BD002C0140001002405A
:1016CC007FB50F4B02689A4217D180200D4A8002D9
:1016DC00D1690143D161D36901A903400093009BF7
:1016EC000C2301930A3B029390200023C005039323
:1016FC00049301330593FEF737FE07B000BDC046D7
:10170C00004400400010024010B5FEF7B7FDFEF794
:10171C0026FE10BD10B50248FFF7CEFA10BDC0462C
:10172C00240000200121114B11481A680A431A6049
:10173C005A6802405A601A680E4802401A601A68C9
:10174C000D4802401A605A680C4802400F205A603B
:10175C00DA6A8243DA621A6B094802401A635A6BDE
:10176C008A435A6300229A607047C04600100240B8
:10177C000CB8FF08FFFFF6FEFFFFFBFFFFFFC0FFEB
:10178C00ACFEF0FF0D4885460D480E490E4A00236D
:10179C0002E0D458C4500433C4188C42F9D30B4A19
:1017AC000B4C002301E013600432A242FBD3FFF781
:1017BC00B9FF00F011F8FFF7B3FEFEE70080002040
:1017CC0000000020040000209C18000804000020E9
:1017DC00D4000020FEE7000070B500260C4D0D4C27
:1017EC00641BA410A64209D1002600F023F80A4D70
:1017FC000A4C641BA410A64205D170BDB300EB5873
:10180C0098470136EEE7B300EB5898470136F2E7FC
:10181C0094180008941800089418000898180008E8
:10182C00002310B59A4200D110BDCC5CC4540133D6
:10183C00F8E70000F8B5C046F8BC08BC9E467047F7
:0C184C00F8B5C046F8BC08BC9E467047CA
:1018580002030405060708090A0B0C0D0E0F1010E9
:101868000102030405060708090A0B0C0D0E0F10E8
:101878000004080200000000000000000102030448
:0C1888000607080900000000010203042C
:04189400E500000863
:04189800BD00000887
:04189C0000127A00BC
:040000050800179147
:00000001FF
