:020000040800F2
:10000000008000204D0900089D0900089D09000896
:1000100000000000000000000000000000000000E0
:100020000000000000000000000000009D09000822
:1000300000000000000000009D090008B104000855
:100040009D0900089D0900089D0900089D090008F8
:100050009D0900089D0900089D0900089D090008E8
:100060009D0900089D0900089D0900089D090008D8
:100070009D0900089D0900089D0900089D090008C8
:100080009D0900089D0900089D0900089D090008B8
:100090009D0900089D0900089D0900089D090008A8
:1000A0009D0900089D0900089D0900089D09000898
:0C00B0009D0900089D0900089D0900083A
:1000BC0010B5064C2378002B07D1054B002B02D032
:1000CC00044800E000BF0123237010BD0400002091
:1000DC0000000000E8090008044B10B5002B03D009
:1000EC000349044800E000BF10BDC04600000000FA
:1000FC0008000020E8090008002243088B4274D352
:10010C0003098B425FD3030A8B4244D3030B8B420C
:10011C0028D3030C8B420DD3FF22090212BA030C15
:10012C008B4202D31212090265D0030B8B4219D3F6
:10013C0000E0090AC30B8B4201D3CB03C01A524116
:10014C00830B8B4201D38B03C01A5241430B8B425E
:10015C0001D34B03C01A5241030B8B4201D30B0347
:10016C00C01A5241C30A8B4201D3CB02C01A52416E
:10017C00830A8B4201D38B02C01A5241430A8B4231
:10018C0001D34B02C01A5241030A8B4201D30B021A
:10019C00C01A5241CDD2C3098B4201D3CB01C01A34
:1001AC00524183098B4201D38B01C01A524143093E
:1001BC008B4201D34B01C01A524103098B4201D32C
:1001CC000B01C01A5241C3088B4201D3CB00C01A99
:1001DC00524183088B4201D38B00C01A5241430811
:1001EC008B4201D34B00C01A5241411A00D2014636
:1001FC00524110467047FFE701B5002000F006F8A9
:10020C0002BDC0460029F7D076E770477047C0465C
:10021C00054B82B05A6902435A615B6918400190E0
:10022C00019B02B07047C04600100240802110B5FF
:10023C00054A0378002B00D110BDD4690C42FCD0C8
:10024C009BB213850130F4E70044004001232D4993
:10025C0010B50A689A431A430A600A681A4200D118
:10026C00FEE7294C226813432360022322681A42BA
:10027C00FCD0F822236893431A0080231343236095
:10028C006368224A1A40A2239B0313430F22636024
:10029C00E36A93431A0001231343E3628023226829
:1002AC005B041343236080239B0422681A42FCD016
:1002BC00F0226368934363606368154A134003221A
:1002CC006360636893431A00022313430C22636038
:1002DC0063681340082BFBD10E4800F005FB042388
:1002EC000D4A0C4811680B43136000F023FB236B81
:1002FC000A4A13400A4A2363136A1B021B0A13623D
:10030C0010BDC0460020024000100240FF7FC2FF1B
:10031C00FFF8FFFF006CDC0210E000E0FFFFFCFFC9
:10032C0000ED00E0F0B501268021544F91B0BB697F
:10033C0049053343BB61BB69002533400193019BE5
:10034C00FA6903AC0A43FA61FB690B400093009B0A
:10035C004B4B4C49DA691202120ADA611A6A0A40EA
:10036C001A621A6A1202120A1A62FFF76FFF8020D1
:10037C000003FFF74DFF8020C003FFF749FF8020EB
:10038C008002FFF745FF90232022F021DB059A62C3
:10039C003D4A3E4853698B43D0390B4353613C4B28
:1003AC00D9680140D9601A6802401A6080239B0109
:1003BC000393022320002671A371657100F0A4F849
:1003CC009020202309A9C00509930A960B950C953A
:1003DC000D9500F0E9F88022FB6992021343FB6152
:1003EC00FB69902013400293029B0423210003938A
:1003FC00C005023B63606661A560E560256100F0A5
:10040C00D3F80823902021000393C005063B6360BA
:10041C006661A560E560256100F0C6F8E1235B022A
:10042C0009930C231B4C09A920000D930A950B95DD
:10043C000C950E950F9500F0DDF9A368164A134044
:10044C00A3608023A2685B011343A3606368134A13
:10045C0013402A226360A3689343A3602368334349
:10046C00236023681E432660FA24A4000C48FFF77F
:10047C00DDFE200000F048FAF8E7C046001002400C
:10048C0000ED00E0FFFF00FF00000140FFFFFFF365
:10049C000008004800440040FFFBFFFFFFB7FFFFD0
:1004AC00000A0008704700000121114B11481A681E
:1004BC000A431A605A6802405A601A680E48024091
:1004CC001A601A680D4802401A605A680C480240BB
:1004DC000F205A60DA6A8243DA621A6B09480240CA
:1004EC001A635A6B8A435A6300229A607047C0465B
:1004FC00001002400CB8FF08FFFFF6FEFFFFFBFFE9
:10050C00FFFFC0FFACFEF0FF10B502790368002AB4
:10051C003CD00122002B1FD0417991421ED00029E2
:10052C0003D0022922D0002206E01E494C689C43CD
:10053C004C600C681C430C60817900290CD002299A
:10054C0018D003291ED001292AD11649C86898430E
:10055C00C860886803438B60100010BD11490C689B
:10056C009C430C604C681C434C60E5E70D490C68DF
:10057C001C43F6E70B49886898438860C8680343B6
:10058C00CB60E9E7074988681843F6E7DB43054A7F
:10059C0011681940116051680B4053600122DBE770
:1005AC000022D9E700040140F0B500260F6885B0A1
:1005BC003B00F3400CD14B68013B012B05D8CA68BA
:1005CC0043687A43BB4313434360012005B0F0BD3D
:1005DC000123B3403B4036D04A68032501921A00F0
:1005EC005A435543ED43046802952C40019D5543F5
:1005FC002C430460019C013C012C0AD88468A4465D
:10060C0065468C6854430394029C2540039C2C4300
:10061C008460C468A44665460C6954430394029CE8
:10062C002C402500039C2543019CC560022C0AD15B
:10063C004C69FF2B09D80F25524355436243036A7B
:10064C00AB43134303620136B2E70F221B0A5B4331
:10065C005B435A436343456A95431D434562F2E746
:10066C00034B044A5B681B061B0FD35CD8407047D6
:10067C0000100240100A0008034B044A5B685B053B
:10068C005B0FD35CD840704700100240200A000872
:10069C00C0210B4B49025A6870B50A408A420CD1F2
:1006AC0008480F25D96A5C6829400131FFF724FD01
:1006BC00A40C2C400234604370BD0348F1E7C046E3
:1006CC0000100240006CDC0200127A000C22074B76
:1006DC0010B55B681340082B03D0934204D1044837
:1006EC0010BDFFF7D5FFFBE70248F9E70010024009
:1006FC00006CDC0200127A0010B50400FFF7E6FF74
:10070C002060FFF7ADFF6060FFF7B6FFA06010BD83
:10071C0010B5031E20D103202E490A6B0240022A79
:10072C000DD0824205D0012A0FD1FFF7CFFF030075
:10073C0003E00A68920700D5274B180021E0096AEC
:10074C001142FAD080231B02F7E7FFF7BFFFFFF738
:10075C0087FFFFF791FFEAE7102819D1C0211D4A46
:10076C008902136B194080235B050B431B498B4299
:10077C0023D01B498B4205D01A4A934222D1FFF752
:10078C00A5FF10BD002013689B07FAD51248F8E7A7
:10079C000020122BF5D1C0210E4A0903136B19400E
:1007AC0090235B050B4310498B4206D00F498B42BB
:1007BC0001D00F4AE1E71368E6E7106A8007C00F23
:1007CC00C003DEE7FFF782FFFFF74AFFFFF754FF96
:1007DC00D7E7C0460010024000127A000000021059
:1007EC0000000310000001100000081200000C12A1
:1007FC000000041230B503680400012085B00D0020
:10080C00184002D0002005B030BD4B68C968226882
:10081C000B4329690B43A9690B4327490A4013432E
:10082C0023606368254A1340AA6813436360A36876
:10083C00234A13406A691343A360224B9C4218D18C
:10084C00FFF766FF0028DDD029680029DAD0802266
:10085C00AD6912024B08954229D14000C018FFF730
:10086C004BFC194B03400007400F1843E06001207C
:10087C00C9E7164B10209C42E2D0154B9C4201D18B
:10088C001220DDE7134B9C4204D101A8FFF734FF83
:10089C000398D7E7104B9C42F7D0104B9C42F4D0F6
:1008AC000F4B9C42F1D00F4B9C42ABD1EDE718188B
:1008BC00FFF722FC80B2D9E7F369FFEFFFCFFFFF10
:1008CC00FFFCFFFF00380140F0FF00000044004037
:1008DC0000480040004C0040005000400014014013
:1008EC0000180140001C0140FA2110B58900FFF7E7
:1008FC0003FC0022034B013858609A6005321A60E1
:10090C0010BDC04610E000E0094B82B01A6801929D
:10091C00019A421C511E8A418018802252020028E2
:10092C0001D102B0704719681142F8D00138F6E7CE
:10093C0010E000E0014B18607047C046000000203A
:10094C000D4885460D480E490E4A002302E0D45846
:10095C00C4500433C4188C42F9D30B4A0B4C0023FB
:10096C0001E013600432A242FBD3FFF79DFD00F0BF
:10097C0011F8FFF7D7FCFEE70080002000000020F4
:10098C0004000020300A0008040000202000002091
:10099C00FEE7000070B500260C4D0D4C641BA41036
:1009AC00A64209D1002600F019F80A4D0A4C641B26
:1009BC00A410A64205D170BDB300EB589847013680
:1009CC00EEE7B300EB5898470136F2E7280A000827
:1009DC00280A0008280A00082C0A0008F8B5C046A6
:1009EC00F8BC08BC9E467047F8B5C046F8BC08BCBD
:0409FC009E4670475C
:100A000048656C6C6F20576F726C6421200D0A0072
:100A100000000000000000000102030406070809AE
:080A20000000000001020304C4
:040A2800E5000008DD
:040A2C00BD00000801
:040A300000127A0036
:040000050800094D99
:00000001FF
