:020000040800F2
:1000000008040020D1000008D9000008DB00000827
:1000100000000000000000000000000000000000E0
:10002000000000000000000000000000DD000008EB
:100030000000000000000000DF000008ED060008DE
:10004000E3000008E3000008E3000008E300000804
:10005000E3000008E3000008E30000083D01000899
:10006000E3000008E3000008E3000008E3000008E4
:10007000E3000008E3000008E3000008E3000008D4
:10008000E3000008E3000008E3000008E3000008C4
:10009000E3000008E3000008E3000008E3000008B4
:1000A000E3000008E3000008E3000008E3000008A4
:1000B000E3000008E3000008E30000080348854669
:1000C00000F02AF800480047310800080804002022
:1000D0000448804704480047FEE7FEE7FEE7FEE7E6
:1000E000FEE7FEE7B5070008BD00000830B50B4687
:1000F000014600202022012409E00D46D5409D4202
:1001000005D31D469540491B254695404019154687
:10011000521E002DF1DC30BD064C0125064E05E0D7
:10012000E36807CC2B430C3C98471034B442F7D318
:10013000FFF7C8FF8C080008AC08000810B5054997
:1001400001204B69400302469A4302D1486100F006
:1001500003F810BD0004014001214903884205D184
:1001600020210920C00642694A40426170470000D0
:1001700008B504494A6902434A614969014000914E
:1001800008BD00000010024008B50449CA690243D6
:10019000CA61C9690140009108BD00000010024019
:1001A00010B50479012325490268002C3DD0002AAE
:1001B00042D04479002C0FD0012C15D0022C16D03F
:1001C00000238279002A37D0012A18D0022A1FD0B2
:1001D000032A21D000232FE04C6894434C6002682E
:1001E0000C6814430C60ECE70C68944301E00C6865
:1001F00014430C6002684C6814434C60E1E70268E9
:10020000CC689443CC6000688A6802438A6013E03B
:1002100002688C68944302E002688C6814438C6026
:100220000068CA680243CA6006E00C6894430C6028
:1002300000684A6882434A60184610BD00040140C5
:10024000F0B500243EE001232A46A3401A4038D0EE
:100250004F680668134653435D005D19AE435F4324
:100260003E4306604E68012E01D0022E05D18F68F4
:1002700086685F43AE433E4386600F69C668AE43FF
:100280001D467D432E43C6604D68022D19D1FF2ABD
:100290000AD84E69056A534353431A01D21A95434B
:1002A00073431D4305620CE0130A1A465A435A432E
:1002B0005A4313019E1A4D69436A6A43B343134379
:1002C0004362641C0A681546E240BCD14A68012AB0
:1002D00001D0022A06D1CB6841682A4691435A438D
:1002E000114341600120F0BD10B57D21C900FFF729
:1002F000FDFE0449401E4861002088610520086118
:1003000010BD000000E000E010B5044600F0B2F9B6
:10031000206000F095F9606000F0A0F9A06010BDC9
:1003200070B5012600241F4DF603002804D01028C4
:100330000BD0122820D01DE000F03AF801282DD073
:10034000022812D0032822D109E000F031F8164922
:10035000411823D00120000415E004460AE000F013
:1003600031F8002806D02C4604E000F033F80028CD
:1003700000D03446204670BD00F01AF80B494118F1
:100380000CD001208004091AEFD08142E7D000F0A0
:1003900071F900F055F900F061F9DEE700F06AF953
:1003A000DBE7000000127A000000FFEF0000FCED28
:1003B0000349096B0322824011400006084370473D
:1003C00000100240024800688007C00F704700001C
:1003D000001002400248006A8007C00F704700000A
:1003E0000010024001490860704700000000002032
:1003F000FEB5044600680D460026C007C00F59D15F
:10040000E9686868AA6908432969114308432168B3
:10041000294A114008432060A9686068032212033A
:100420009043084360606969A068121190430843D3
:10043000A0602248844201D1002008E02048844284
:1004400001D1102003E01F48844203D11220FFF79E
:1004500067FF12E01C4884420BD01C48844208D03D
:100460001B48844205D01B48844202D01A4884426B
:1004700020D16846FFF748FF029800281AD0296863
:10048000002917D00126AA69F3039A420CD1400033
:100490004A088018FFF72AFE81B210480840090771
:1004A000490F0143E16005E04A081018FFF71EFEFE
:1004B00080B2E0603046FEBDF369FFEF00380140D6
:1004C0000044004000480040004C00400050004004
:1004D0000014014000180140001C0140F0FF000022
:1004E000F0B5012089B0C004FFF742FE012080056D
:1004F000FFF73EFE01204004FFF73AFE20200925C9
:10050000ED06A86216498868F02290432026304301
:1005100088604B141349CA68032080068243002474
:10052000CA600A6882430A60012768460693077713
:1005300044770221817706A8FFF732FE02940394E4
:1005400069462846019700960494FFF779FE00213A
:10055000072000F053F804498020086009B0F0BD7E
:100560000C0001400008004800E100E0F0B5012067
:100570008DB04004FFF708FE002401250420092760
:1005800005950226FF0600900294039469460196A1
:1005900004943846FFF754FE082005950090029415
:1005A00003946946019604943846FFF749FEE1201A
:1005B000400206900794089409940B940C940C2024
:1005C0000D4C0A9006A92046FFF712FFA0682115DE
:1005D0008843A060A06889000843A060606839145F
:1005E00088436060A0682A218843A060206828436F
:1005F00020600DB0F0BD0000004400408307FF22E2
:10060000DB0E9A408907090E994000280BDA000793
:10061000000F0838830808489B001818C3699343E3
:100620000B43C3617047830804489B001B1818687C
:10063000904308431860704700ED00E000E400E0DC
:1006400004494968F0221140034A0909515CC84035
:100650007047000000100240740800080349496810
:10066000034A4905490F515CC840704700100240D9
:100670008408000810B5084841680C20014007486C
:1006800006D0042904D0082903D00C2900D104483D
:1006900010BD00F007F810BD0010024000127A00F3
:1006A000006CDC0210B50E4C60680321C9030840E1
:1006B0000121C903421A0B4804D0521A02D08A42BF
:1006C00000D10948E16A0907090F491CFFF70EFD2F
:1006D00061680F2292041140890C891C484310BDA7
:1006E0000010024000127A00006CDC02704700002B
:1006F00070B52C48012102688A430A4302600068F1
:1007000008404DD0284C20680843206020688007AE
:10071000C00FFBD02068F821884380210843206067
:10072000606801217B22D20390435122D2031043FF
:100730006060E06A000900010843E0622068090681
:100740000843206020688001C00FFBD06068F02162
:1007500088436060606807210902884360606168BF
:10076000022089088900014361600C21606808400B
:100770000828FBD10D4D2846FFF7B6FD0C49086946
:100780000422104308612846FFF72CFE206B03214A
:100790000904884320630021481EFFF72FFF70BD26
:1007A000FEE700000020024000100240006CDC0266
:1007B00000E000E012480168012211430160416835
:1007C000104A1140416001680F4A11400160016800
:1007D000012292049143016041683F221204914337
:1007E0004160C16A09090901C162016B074A1140F0
:1007F0000163416B490849004163002181607047F2
:10080000001002400CB8FF08FFFFF6FEACFEF0FF40
:1008100002E008C8121F08C1002AFAD170477047C9
:10082000002001E001C1121F002AFBD17047000027
:1008300008B50F48012182690A4382618069084036
:1008400000900807FFF7A0FC0021481FFFF7D6FE25
:100850000021881EFFF7D2FE0021481EFFF7CEFEC2
:10086000FFF746FFFFF73CFEFFF780FEFEE70000C4
:10087000001002400000000000000000010203041C
:10088000060708090000000001020304AC08000884
:10089000000000200400000010080008B008000854
:1008A00004000020040400002008000800127A0060
:04000005080000BD32
:00000001FF
